{
  "contractName": "BankDeposit",
  "abi": [
    {
      "anonymous": false,
      "inputs": [
        {
          "indexed": false,
          "internalType": "address",
          "name": "investor",
          "type": "address"
        },
        {
          "indexed": false,
          "internalType": "uint256",
          "name": "amount",
          "type": "uint256"
        }
      ],
      "name": "Invest",
      "type": "event"
    },
    {
      "anonymous": false,
      "inputs": [
        {
          "indexed": false,
          "internalType": "address",
          "name": "investor",
          "type": "address"
        },
        {
          "indexed": false,
          "internalType": "uint256",
          "name": "amount",
          "type": "uint256"
        }
      ],
      "name": "Withdraw",
      "type": "event"
    },
    {
      "inputs": [
        {
          "internalType": "address",
          "name": "",
          "type": "address"
        }
      ],
      "name": "allPercentWithdraw",
      "outputs": [
        {
          "internalType": "uint256",
          "name": "",
          "type": "uint256"
        }
      ],
      "stateMutability": "view",
      "type": "function"
    },
    {
      "inputs": [
        {
          "internalType": "address",
          "name": "",
          "type": "address"
        }
      ],
      "name": "balance",
      "outputs": [
        {
          "internalType": "uint256",
          "name": "",
          "type": "uint256"
        }
      ],
      "stateMutability": "view",
      "type": "function"
    },
    {
      "inputs": [
        {
          "internalType": "address",
          "name": "",
          "type": "address"
        }
      ],
      "name": "percentWithdraw",
      "outputs": [
        {
          "internalType": "uint256",
          "name": "",
          "type": "uint256"
        }
      ],
      "stateMutability": "view",
      "type": "function"
    },
    {
      "inputs": [],
      "name": "stepTime",
      "outputs": [
        {
          "internalType": "uint256",
          "name": "",
          "type": "uint256"
        }
      ],
      "stateMutability": "view",
      "type": "function"
    },
    {
      "inputs": [
        {
          "internalType": "address",
          "name": "",
          "type": "address"
        }
      ],
      "name": "time",
      "outputs": [
        {
          "internalType": "uint256",
          "name": "",
          "type": "uint256"
        }
      ],
      "stateMutability": "view",
      "type": "function"
    },
    {
      "inputs": [
        {
          "internalType": "address",
          "name": "",
          "type": "address"
        }
      ],
      "name": "userDeposit",
      "outputs": [
        {
          "internalType": "uint256",
          "name": "",
          "type": "uint256"
        }
      ],
      "stateMutability": "view",
      "type": "function"
    },
    {
      "inputs": [],
      "name": "bankAccount",
      "outputs": [],
      "stateMutability": "payable",
      "type": "function"
    },
    {
      "inputs": [],
      "name": "collectPercent",
      "outputs": [],
      "stateMutability": "nonpayable",
      "type": "function"
    },
    {
      "inputs": [],
      "name": "deposit",
      "outputs": [],
      "stateMutability": "payable",
      "type": "function"
    },
    {
      "inputs": [],
      "name": "percentRate",
      "outputs": [
        {
          "internalType": "uint256",
          "name": "",
          "type": "uint256"
        }
      ],
      "stateMutability": "view",
      "type": "function"
    },
    {
      "inputs": [],
      "name": "payoutAmount",
      "outputs": [
        {
          "internalType": "uint256",
          "name": "",
          "type": "uint256"
        }
      ],
      "stateMutability": "view",
      "type": "function"
    },
    {
      "inputs": [],
      "name": "returnDeposit",
      "outputs": [],
      "stateMutability": "nonpayable",
      "type": "function"
    }
  ],
  "bytecode": "0x608060405260b460055534801561001557600080fd5b506112b6806100256000396000f3fe6080604052600436106100a75760003560e01c80637e88f603116100645780637e88f603146101af5780638090114f146101c6578063d0e30db0146101f1578063d1260edd146101fb578063e3d670d714610238578063f488fdd014610275576100a7565b80631cd01e3a146100ac578063377a0f53146100c35780634883c329146100cd5780636b46c8c31461010a5780637960eff8146101355780637c67a3e214610172575b600080fd5b3480156100b857600080fd5b506100c16102a0565b005b6100cb6106de565b005b3480156100d957600080fd5b506100f460048036038101906100ef9190610f5c565b6106f4565b6040516101019190610fa2565b60405180910390f35b34801561011657600080fd5b5061011f61070c565b60405161012c9190610fa2565b60405180910390f35b34801561014157600080fd5b5061015c60048036038101906101579190610f5c565b61085e565b6040516101699190610fa2565b60405180910390f35b34801561017e57600080fd5b5061019960048036038101906101949190610f5c565b610876565b6040516101a69190610fa2565b60405180910390f35b3480156101bb57600080fd5b506101c461088e565b005b3480156101d257600080fd5b506101db6109eb565b6040516101e89190610fa2565b60405180910390f35b6101f9610bfa565b005b34801561020757600080fd5b50610222600480360381019061021d9190610f5c565b610e0c565b60405161022f9190610fa2565b60405180910390f35b34801561024457600080fd5b5061025f600480360381019061025a9190610f5c565b610e24565b60405161026c9190610fa2565b60405180910390f35b34801561028157600080fd5b5061028a610e3c565b6040516102979190610fa2565b60405180910390f35b6000600160003373ffffffffffffffffffffffffffffffffffffffff1673ffffffffffffffffffffffffffffffffffffffff1681526020019081526020016000205411610322576040517f08c379a00000000000000000000000000000000000000000000000000000000081526004016103199061101a565b60405180910390fd5b610376600554600260003373ffffffffffffffffffffffffffffffffffffffff1673ffffffffffffffffffffffffffffffffffffffff16815260200190815260200160002054610e4290919063ffffffff16565b4210156103b8576040517f08c379a00000000000000000000000000000000000000000000000000000000081526004016103af90611086565b60405180910390fd5b600460003373ffffffffffffffffffffffffffffffffffffffff1673ffffffffffffffffffffffffffffffffffffffff1681526020019081526020016000205461044b6002600160003373ffffffffffffffffffffffffffffffffffffffff1673ffffffffffffffffffffffffffffffffffffffff16815260200190815260200160002054610e6e90919063ffffffff16565b11610524576000600160003373ffffffffffffffffffffffffffffffffffffffff1673ffffffffffffffffffffffffffffffffffffffff168152602001908152602001600020819055506000600260003373ffffffffffffffffffffffffffffffffffffffff1673ffffffffffffffffffffffffffffffffffffffff168152602001908152602001600020819055506000600360003373ffffffffffffffffffffffffffffffffffffffff1673ffffffffffffffffffffffffffffffffffffffff168152602001908152602001600020819055506106dc565b600061052e61070c565b905061058281600360003373ffffffffffffffffffffffffffffffffffffffff1673ffffffffffffffffffffffffffffffffffffffff16815260200190815260200160002054610e4290919063ffffffff16565b600360003373ffffffffffffffffffffffffffffffffffffffff1673ffffffffffffffffffffffffffffffffffffffff1681526020019081526020016000208190555061061781600460003373ffffffffffffffffffffffffffffffffffffffff1673ffffffffffffffffffffffffffffffffffffffff16815260200190815260200160002054610e4290919063ffffffff16565b600460003373ffffffffffffffffffffffffffffffffffffffff1673ffffffffffffffffffffffffffffffffffffffff168152602001908152602001600020819055503373ffffffffffffffffffffffffffffffffffffffff166108fc829081150290604051600060405180830381858888f193505050501580156106a0573d6000803e3d6000fd5b507f884edad9ce6fa2440d8a54cc123490eb96d2768479d49ff9c7366125a942436433826040516106d29291906110b5565b60405180910390a1505b565b66038d7ea4c680003410156106f257600080fd5b565b60046020528060005260406000206000915090505481565b6000806107176109eb565b90506000610781600554610773600260003373ffffffffffffffffffffffffffffffffffffffff1673ffffffffffffffffffffffffffffffffffffffff1681526020019081526020016000205442610eb790919063ffffffff16565b610ede90919063ffffffff16565b905060006107ea836107dc6064600160003373ffffffffffffffffffffffffffffffffffffffff1673ffffffffffffffffffffffffffffffffffffffff16815260200190815260200160002054610ede90919063ffffffff16565b610e6e90919063ffffffff16565b90506000610852600360003373ffffffffffffffffffffffffffffffffffffffff1673ffffffffffffffffffffffffffffffffffffffff168152602001908152602001600020546108448585610e6e90919063ffffffff16565b610eb790919063ffffffff16565b90508094505050505090565b60036020528060005260406000206000915090505481565b60026020528060005260406000206000915090505481565b6000600160003373ffffffffffffffffffffffffffffffffffffffff1673ffffffffffffffffffffffffffffffffffffffff1681526020019081526020016000205490506000600160003373ffffffffffffffffffffffffffffffffffffffff1673ffffffffffffffffffffffffffffffffffffffff168152602001908152602001600020819055506000600260003373ffffffffffffffffffffffffffffffffffffffff1673ffffffffffffffffffffffffffffffffffffffff168152602001908152602001600020819055506000600360003373ffffffffffffffffffffffffffffffffffffffff1673ffffffffffffffffffffffffffffffffffffffff168152602001908152602001600020819055503373ffffffffffffffffffffffffffffffffffffffff166108fc829081150290604051600060405180830381858888f193505050501580156109e7573d6000803e3d6000fd5b5050565b6000678ac7230489e80000600160003373ffffffffffffffffffffffffffffffffffffffff1673ffffffffffffffffffffffffffffffffffffffff168152602001908152602001600020541015610a455760059050610bf7565b678ac7230489e80000600160003373ffffffffffffffffffffffffffffffffffffffff1673ffffffffffffffffffffffffffffffffffffffff1681526020019081526020016000205410158015610ae357506801158e460913d00000600160003373ffffffffffffffffffffffffffffffffffffffff1673ffffffffffffffffffffffffffffffffffffffff16815260200190815260200160002054105b15610af15760079050610bf7565b6801158e460913d00000600160003373ffffffffffffffffffffffffffffffffffffffff1673ffffffffffffffffffffffffffffffffffffffff1681526020019081526020016000205410158015610b9057506801a055690d9db80000600160003373ffffffffffffffffffffffffffffffffffffffff1673ffffffffffffffffffffffffffffffffffffffff16815260200190815260200160002054105b15610b9e5760089050610bf7565b6801a055690d9db80000600160003373ffffffffffffffffffffffffffffffffffffffff1673ffffffffffffffffffffffffffffffffffffffff1681526020019081526020016000205410610bf65760099050610bf7565b5b90565b6000341115610e0a576000600160003373ffffffffffffffffffffffffffffffffffffffff1673ffffffffffffffffffffffffffffffffffffffff16815260200190815260200160002054118015610ca45750610ca1600554600260003373ffffffffffffffffffffffffffffffffffffffff1673ffffffffffffffffffffffffffffffffffffffff16815260200190815260200160002054610e4290919063ffffffff16565b42115b15610cf757610cb16102a0565b6000600360003373ffffffffffffffffffffffffffffffffffffffff1673ffffffffffffffffffffffffffffffffffffffff168152602001908152602001600020819055505b610d4934600160003373ffffffffffffffffffffffffffffffffffffffff1673ffffffffffffffffffffffffffffffffffffffff16815260200190815260200160002054610e4290919063ffffffff16565b600160003373ffffffffffffffffffffffffffffffffffffffff1673ffffffffffffffffffffffffffffffffffffffff1681526020019081526020016000208190555042600260003373ffffffffffffffffffffffffffffffffffffffff1673ffffffffffffffffffffffffffffffffffffffff168152602001908152602001600020819055507fd90d253a9de34d2fdd5a75ae49ea17fcb43af32fc8ea08cc6d2341991dd3872e3334604051610e019291906110b5565b60405180910390a15b565b60006020528060005260406000206000915090505481565b60016020528060005260406000206000915090505481565b60055481565b6000808284610e51919061110d565b905083811015610e6457610e63611163565b5b8091505092915050565b600080831415610e815760009050610eb1565b60008284610e8f9190611192565b9050828482610e9e919061121b565b14610eac57610eab611163565b5b809150505b92915050565b600082821115610eca57610ec9611163565b5b8183610ed6919061124c565b905092915050565b6000808284610eed919061121b565b90508091505092915050565b600080fd5b600073ffffffffffffffffffffffffffffffffffffffff82169050919050565b6000610f2982610efe565b9050919050565b610f3981610f1e565b8114610f4457600080fd5b50565b600081359050610f5681610f30565b92915050565b600060208284031215610f7257610f71610ef9565b5b6000610f8084828501610f47565b91505092915050565b6000819050919050565b610f9c81610f89565b82525050565b6000602082019050610fb76000830184610f93565b92915050565b600082825260208201905092915050565b7f55736572206e6f7420666f756e64000000000000000000000000000000000000600082015250565b6000611004600e83610fbd565b915061100f82610fce565b602082019050919050565b6000602082019050818103600083015261103381610ff7565b9050919050565b7f4e6f7420656e6f7567682074696d6520676f6e65000000000000000000000000600082015250565b6000611070601483610fbd565b915061107b8261103a565b602082019050919050565b6000602082019050818103600083015261109f81611063565b9050919050565b6110af81610f1e565b82525050565b60006040820190506110ca60008301856110a6565b6110d76020830184610f93565b9392505050565b7f4e487b7100000000000000000000000000000000000000000000000000000000600052601160045260246000fd5b600061111882610f89565b915061112383610f89565b9250827fffffffffffffffffffffffffffffffffffffffffffffffffffffffffffffffff03821115611158576111576110de565b5b828201905092915050565b7f4e487b7100000000000000000000000000000000000000000000000000000000600052600160045260246000fd5b600061119d82610f89565b91506111a883610f89565b9250817fffffffffffffffffffffffffffffffffffffffffffffffffffffffffffffffff04831182151516156111e1576111e06110de565b5b828202905092915050565b7f4e487b7100000000000000000000000000000000000000000000000000000000600052601260045260246000fd5b600061122682610f89565b915061123183610f89565b925082611241576112406111ec565b5b828204905092915050565b600061125782610f89565b915061126283610f89565b925082821015611275576112746110de565b5b82820390509291505056fea26469706673582212202e31cd5d403c051560cacee80eedfc2b07e35a8057a0482309c153c66ce924e464736f6c634300080c0033",
  "immutableReferences": {},
  "source": "// SPDX-License-Identifier: MIT\npragma solidity >=0.4.22 <0.9.0;\n\nimport \"./SafeMath.sol\";\n\ncontract BankDeposit {\n  using SafeMath for uint;\n  mapping(address => uint) public userDeposit;\n  mapping(address => uint) public balance;\n  mapping(address => uint) public time;\n  mapping(address => uint) public percentWithdraw;\n  mapping(address => uint) public allPercentWithdraw;\n\n  uint public stepTime = 0.05 hours;\n\n  event Invest(address investor, uint256 amount);\n  event Withdraw(address investor, uint256 amount);\n\n  modifier userExist(){\n    require(balance[msg.sender] > 0, \"User not found\");\n    _;\n  }\n\n  modifier checkTime(){\n    require(block.timestamp >= time[msg.sender].add(stepTime), \"Not enough time gone\");\n    _;\n  }\n\n  function bankAccount() public payable{\n    require(msg.value >= .001 ether);\n  }\n\n  function collectPercent() userExist checkTime public {\n    if ((balance[msg.sender].mul(2)) <= allPercentWithdraw[msg.sender]) {\n        balance[msg.sender] = 0;\n        time[msg.sender] = 0;\n        percentWithdraw[msg.sender] = 0;\n    } else {\n      uint payout = payoutAmount();\n      percentWithdraw[msg.sender] = percentWithdraw[msg.sender].add(payout);\n      allPercentWithdraw[msg.sender] = allPercentWithdraw[msg.sender].add(payout);\n      payable(msg.sender).transfer(payout);\n      emit Withdraw(msg.sender, payout);\n    } \n  }\n\n  function deposit() public payable {\n    if(msg.value > 0) {\n      if(balance[msg.sender] > 0 && block.timestamp > time[msg.sender].add(stepTime)) {\n        collectPercent();\n        percentWithdraw[msg.sender] = 0;\n      }\n      balance[msg.sender] = balance[msg.sender].add(msg.value);\n      time[msg.sender] = block.timestamp;\n      emit Invest(msg.sender, msg.value);\n    }\n  }\n\n  function percentRate() public view returns(uint) {\n    if(balance[msg.sender] < 10 ether) {\n      return (5);\n    }\n    if(balance[msg.sender] >= 10 ether && balance[msg.sender] < 20 ether) {\n      return (7);\n    }\n    if(balance[msg.sender] >= 20 ether && balance[msg.sender] < 30 ether) {\n      return (8);\n    }\n    if(balance[msg.sender] >= 30 ether) {\n      return (9);\n    }\n  }\n\n  function payoutAmount() public view returns (uint256) {\n    uint percent = percentRate();\n    uint diffenerent = block.timestamp.sub(time[msg.sender]).div(stepTime);\n    uint rate = balance[msg.sender].div(100).mul(percent);\n    uint withdrawalAmount = rate.mul(diffenerent).sub(percentWithdraw[msg.sender]);\n    return withdrawalAmount;\n  }\n\n  function returnDeposit() public {\n    uint withdrawalAmount = balance[msg.sender];\n    balance[msg.sender] = 0;\n    time[msg.sender] = 0;\n    percentWithdraw[msg.sender] = 0;\n    payable(msg.sender).transfer(withdrawalAmount);\n  }\n}\n",
  "sourcePath": "/Users/yernaryerboluly/Blockchain/Smart-contracts/SimpleFinance/contracts/BankDeposit.sol",
  "compiler": {
    "name": "solc",
    "version": "0.8.12+commit.f00d7308.Emscripten.clang"
  },
  "schemaVersion": "3.4.6",
  "updatedAt": "2022-05-27T10:17:51.029Z",
  "devdoc": {
    "kind": "dev",
    "methods": {},
    "version": 1
  },
  "userdoc": {
    "kind": "user",
    "methods": {},
    "version": 1
  }
}