{
  "contractName": "Dice",
  "abi": [
    {
      "inputs": [],
      "name": "manager",
      "outputs": [
        {
          "internalType": "address",
          "name": "",
          "type": "address"
        }
      ],
      "stateMutability": "view",
      "type": "function"
    },
    {
      "inputs": [
        {
          "internalType": "uint256",
          "name": "",
          "type": "uint256"
        }
      ],
      "name": "players",
      "outputs": [
        {
          "internalType": "address payable",
          "name": "",
          "type": "address"
        }
      ],
      "stateMutability": "view",
      "type": "function"
    },
    {
      "inputs": [],
      "name": "CEO",
      "outputs": [],
      "stateMutability": "nonpayable",
      "type": "function"
    },
    {
      "inputs": [],
      "name": "Enter",
      "outputs": [
        {
          "internalType": "uint256",
          "name": "",
          "type": "uint256"
        }
      ],
      "stateMutability": "payable",
      "type": "function"
    },
    {
      "inputs": [],
      "name": "Winner",
      "outputs": [
        {
          "internalType": "string",
          "name": "",
          "type": "string"
        },
        {
          "internalType": "uint256",
          "name": "",
          "type": "uint256"
        },
        {
          "internalType": "uint256",
          "name": "",
          "type": "uint256"
        }
      ],
      "stateMutability": "payable",
      "type": "function"
    }
  ],
  "bytecode": "0x608060405234801561001057600080fd5b50610a22806100206000396000f3fe60806040526004361061004a5760003560e01c80631097e5791461004f578063481c6a751461006d578063a108857114610098578063b2b98ed2146100af578063f71d96cb146100cf575b600080fd5b61005761010c565b6040516100649190610572565b60405180910390f35b34801561007957600080fd5b506100826101bd565b60405161008f91906105ce565b60405180910390f35b3480156100a457600080fd5b506100ad6101e1565b005b6100b7610223565b6040516100c693929190610682565b60405180910390f35b3480156100db57600080fd5b506100f660048036038101906100f191906106f1565b6104c3565b604051610103919061073f565b60405180910390f35b600066038d7ea4c680003411610157576040517f08c379a000000000000000000000000000000000000000000000000000000000815260040161014e906107a6565b60405180910390fd5b6001339080600181540180825580915050600190039060005260206000200160009091909190916101000a81548173ffffffffffffffffffffffffffffffffffffffff021916908373ffffffffffffffffffffffffffffffffffffffff16021790555090565b60008054906101000a900473ffffffffffffffffffffffffffffffffffffffff1681565b336000806101000a81548173ffffffffffffffffffffffffffffffffffffffff021916908373ffffffffffffffffffffffffffffffffffffffff160217905550565b606060008060008054906101000a900473ffffffffffffffffffffffffffffffffffffffff1673ffffffffffffffffffffffffffffffffffffffff163373ffffffffffffffffffffffffffffffffffffffff16146102b6576040517f08c379a00000000000000000000000000000000000000000000000000000000081526004016102ad90610812565b60405180910390fd5b60006102c26000610502565b905060006102d06001610502565b9050808211156103a75760016000815481106102ef576102ee610832565b5b9060005260206000200160009054906101000a900473ffffffffffffffffffffffffffffffffffffffff1673ffffffffffffffffffffffffffffffffffffffff166108fc479081150290604051600060405180830381858888f1935050505015801561035f573d6000803e3d6000fd5b5081816040518060400160405280601481526020017f57696e6e657220697320706c6179657220313a20000000000000000000000000815250919094509450945050506104be565b8082101561047b57600180815481106103c3576103c2610832565b5b9060005260206000200160009054906101000a900473ffffffffffffffffffffffffffffffffffffffff1673ffffffffffffffffffffffffffffffffffffffff166108fc479081150290604051600060405180830381858888f19350505050158015610433573d6000803e3d6000fd5b5081816040518060400160405280601481526020017f57696e6e657220697320706c6179657220323a20000000000000000000000000815250919094509450945050506104be565b81816040518060400160405280601a81526020017f447261772c20796f7572206265747320617265206275726e6564000000000000815250919094509450945050505b909192565b600181815481106104d357600080fd5b906000526020600020016000915054906101000a900473ffffffffffffffffffffffffffffffffffffffff1681565b600080600a42338560405160200161051c939291906108ca565b6040516020818303038152906040528051906020012060001c61053f9190610936565b905060028161054e9190610996565b905080915050919050565b6000819050919050565b61056c81610559565b82525050565b60006020820190506105876000830184610563565b92915050565b600073ffffffffffffffffffffffffffffffffffffffff82169050919050565b60006105b88261058d565b9050919050565b6105c8816105ad565b82525050565b60006020820190506105e360008301846105bf565b92915050565b600081519050919050565b600082825260208201905092915050565b60005b83811015610623578082015181840152602081019050610608565b83811115610632576000848401525b50505050565b6000601f19601f8301169050919050565b6000610654826105e9565b61065e81856105f4565b935061066e818560208601610605565b61067781610638565b840191505092915050565b6000606082019050818103600083015261069c8186610649565b90506106ab6020830185610563565b6106b86040830184610563565b949350505050565b600080fd5b6106ce81610559565b81146106d957600080fd5b50565b6000813590506106eb816106c5565b92915050565b600060208284031215610707576107066106c0565b5b6000610715848285016106dc565b91505092915050565b60006107298261058d565b9050919050565b6107398161071e565b82525050565b60006020820190506107546000830184610730565b92915050565b7f46756e64732061726520746f6f206c6f77000000000000000000000000000000600082015250565b60006107906011836105f4565b915061079b8261075a565b602082019050919050565b600060208201905081810360008301526107bf81610783565b9050919050565b7f4e6f206163636573730000000000000000000000000000000000000000000000600082015250565b60006107fc6009836105f4565b9150610807826107c6565b602082019050919050565b6000602082019050818103600083015261082b816107ef565b9050919050565b7f4e487b7100000000000000000000000000000000000000000000000000000000600052603260045260246000fd5b6000819050919050565b61087c61087782610559565b610861565b82525050565b60008160601b9050919050565b600061089a82610882565b9050919050565b60006108ac8261088f565b9050919050565b6108c46108bf826105ad565b6108a1565b82525050565b60006108d6828661086b565b6020820191506108e682856108b3565b6014820191506108f6828461086b565b602082019150819050949350505050565b7f4e487b7100000000000000000000000000000000000000000000000000000000600052601260045260246000fd5b600061094182610559565b915061094c83610559565b92508261095c5761095b610907565b5b828206905092915050565b7f4e487b7100000000000000000000000000000000000000000000000000000000600052601160045260246000fd5b60006109a182610559565b91506109ac83610559565b9250827fffffffffffffffffffffffffffffffffffffffffffffffffffffffffffffffff038211156109e1576109e0610967565b5b82820190509291505056fea26469706673582212209d45259d5063a068c2cdae08940e1592f408aff1d73ee51042e51463dc9b466264736f6c634300080c0033",
  "immutableReferences": {},
  "source": "// SPDX-License-Identifier: MIT\npragma solidity >=0.4.22 <0.9.0;\n\ncontract Dice {\n  address public manager;\n  address payable[] public players;\n  function CEO() public {\n    manager = msg.sender;\n  }\n\n  function Enter() public payable returns (uint) {\n    require(msg.value > 0.001 ether, \"Funds are too low\");\n    players.push(payable(msg.sender));\n  }\n\n  function getRandomNumber( uint number) private view returns (uint) {\n    uint brosok  = uint(keccak256(abi.encodePacked(block.timestamp, msg.sender, number))) % 10;\n    brosok = brosok + 2;\n    return(brosok);\n  }\n\n  function Winner() public payable restricted returns(string memory, uint, uint) {\n    uint player1 = getRandomNumber(0);\n    uint player2 = getRandomNumber(1);\n    if(player1 > player2) {\n      players[0].transfer(address(this).balance) ;\n      return(\"Winner is player 1: \",player1, player2);\n    }\n    else if(player1 < player2){\n      players[1].transfer(address(this).balance );\n      return(\"Winner is player 2: \", player1, player2);\n    }\n    else return(\"Draw, your bets are burned\", player1, player2);\n  }\n\n  modifier restricted() {\n    require(msg.sender == manager, \"No access\");\n    _;\n  } \n}\n",
  "sourcePath": "/Users/yernaryerboluly/Blockchain/Smart-contracts/SimpleGames/contracts/Dice.sol",
  "compiler": {
    "name": "solc",
    "version": "0.8.12+commit.f00d7308.Emscripten.clang"
  },
  "schemaVersion": "3.4.6",
  "updatedAt": "2022-05-25T16:43:06.933Z",
  "devdoc": {
    "kind": "dev",
    "methods": {},
    "version": 1
  },
  "userdoc": {
    "kind": "user",
    "methods": {},
    "version": 1
  }
}